:1000000012C02CC02BC02AC029C028C027C026C0BF
:1000100025C024C023C022C021C020C01FC01EC0D4
:100020001DC01CC01BC011241FBECFE5D4E0DEBF25
:10003000CDBF10E0A0E6B0E0E4E8F4E002C0059037
:100040000D92AE39B107D9F710E0AEE9B0E001C0CA
:100050001D92A03AB107E1F7DFD112C2D1CF8AB128
:1000600088618AB980B5866880BD83E389B90895BF
:1000700081E48CB95E9BFECF80E48BB984ED90E384
:100080000197F1F784E58CB95E9BFECF80E48BB9D4
:1000900084ED90E30197F1F78DE08CB95E9BFECF84
:1000A00080E48BB984ED90E30197F1F780E197E26A
:1000B00029E130E0F9013197F1F70197D9F780E1B3
:1000C00097E229E130E0F9013197F1F70197D9F78B
:1000D00080E197E229E130E0F9013197F1F70197EA
:1000E000D9F780E197E229E130E0F9013197F1F7A2
:1000F0000197D9F780E197E229E130E0F9013197E2
:10010000F1F70197D9F780E197E229E130E0F901B1
:100110003197F1F70197D9F780E197E229E130E0D3
:10012000F9013197F1F70197D9F780E197E229E1D9
:1001300030E0F9013197F1F70197D9F780E197E2C3
:1001400029E130E0F9013197F1F70197D9F780E122
:1001500097E229E130E0F9013197F1F70197D9F7FA
:10016000E0E6F0E040E424ED30E308C08CB95E9BAB
:10017000FECF4BB9C9010197F1F7319680818823F1
:10018000A9F78DE08CB95E9BFECF80E48BB980E14E
:1001900097E229E130E0F9013197F1F70197D9F7BA
:1001A00080E197E229E130E0F9013197F1F7019719
:1001B000D9F780E197E229E130E0F9013197F1F7D1
:1001C0000197D9F780E197E229E130E0F901319711
:1001D000F1F70197D9F780E197E229E130E0F901E1
:1001E0003197F1F70197D9F780E197E229E130E003
:1001F000F9013197F1F70197D9F780E197E229E109
:1002000030E0F9013197F1F70197D9F780E197E2F2
:1002100029E130E0F9013197F1F70197D9F780E151
:1002200097E229E130E0F9013197F1F70197D9F729
:1002300080E197E229E130E0F9013197F1F7019788
:10024000D9F7EAE6F0E040E424ED30E308C08CB9E9
:100250005E9BFECF4BB9C9010197F1F731968081C2
:100260008823A9F78DE08CB95E9BFECF80E48BB923
:1002700080E197E229E130E0F9013197F1F7019748
:10028000D9F780E197E229E130E0F9013197F1F700
:100290000197D9F780E197E229E130E0F901319740
:1002A000F1F70197D9F780E197E229E130E0F90110
:1002B0003197F1F70197D9F780E197E229E130E032
:1002C000F9013197F1F70197D9F780E197E229E138
:1002D00030E0F9013197F1F70197D9F780E197E222
:1002E00029E130E0F9013197F1F70197D9F780E181
:1002F00097E229E130E0F9013197F1F70197D9F759
:1003000080E197E229E130E0F9013197F1F70197B7
:10031000D9F780E197E229E130E0F9013197F1F76F
:100320000197D9F7EFE7F0E020E030E060E444ED3A
:1003300050E30AC08CB95E9BFECF6BB9CA0101972E
:10034000F1F72F5F3F4F31968081882399F72093F3
:100350009E0030939F0080E197E229E130E0F901AF
:100360003197F1F70197D9F780E197E229E130E081
:10037000F9013197F1F70197D9F780E197E229E187
:1003800030E0F9013197F1F70197D9F780E197E271
:1003900029E130E0F9013197F1F70197D9F780E1D0
:1003A00097E229E130E0F9013197F1F70197D9F7A8
:1003B00080E197E229E130E0F9013197F1F7019707
:1003C000D9F780E197E229E130E0F9013197F1F7BF
:1003D0000197D9F780E197E229E130E0F9013197FF
:1003E000F1F70197D9F780E197E229E130E0F901CF
:1003F0003197F1F70197D9F780E197E229E130E0F1
:10040000F9013197F1F70197D9F78AE18CB95E9B31
:10041000FECF80E48BB90895EF92FF920F931F9364
:100420008CE081BB14BA8AE187BB83E3E82EFF240A
:10043000F39400E11AE08AB188618AB980B58668D0
:1004400080BDE9B8F8BA859912C0859BFECF0CC073
:10045000879B02C0999B03C018BB0ADEECCFB699FC
:1004600002C008BB01C018BA8699F2CFECCF8699BA
:10047000EACF869BFECF01C018BA8599FDCFE3CFA6
:04048000F894FFCF1E
:1004840041542B434D47463D310041542B434D4786
:10049400533D22373031343439313536332200413B
:1004A4006C657274212120746865667420697320F8
:0E04B400696E2074686520686F7573650000BE
:00000001FF
